{
  "_format": "hh-sol-artifact-1",
  "contractName": "Contract",
  "sourceName": "contracts/Contract.sol",
  "abi": [
    {
      "inputs": [],
      "stateMutability": "nonpayable",
      "type": "constructor"
    },
    {
      "anonymous": false,
      "inputs": [
        {
          "indexed": false,
          "internalType": "uint256",
          "name": "value",
          "type": "uint256"
        },
        {
          "indexed": false,
          "internalType": "address",
          "name": "player",
          "type": "address"
        }
      ],
      "name": "depositMade",
      "type": "event"
    },
    {
      "anonymous": false,
      "inputs": [
        {
          "indexed": false,
          "internalType": "uint256",
          "name": "value",
          "type": "uint256"
        },
        {
          "indexed": false,
          "internalType": "address",
          "name": "player",
          "type": "address"
        }
      ],
      "name": "withdrawMade",
      "type": "event"
    },
    {
      "inputs": [
        {
          "internalType": "address",
          "name": "yourAddress",
          "type": "address"
        }
      ],
      "name": "balance",
      "outputs": [
        {
          "internalType": "uint256",
          "name": "",
          "type": "uint256"
        }
      ],
      "stateMutability": "view",
      "type": "function"
    },
    {
      "inputs": [],
      "name": "deposit",
      "outputs": [
        {
          "internalType": "uint256",
          "name": "",
          "type": "uint256"
        }
      ],
      "stateMutability": "payable",
      "type": "function"
    },
    {
      "inputs": [],
      "name": "owner",
      "outputs": [
        {
          "internalType": "address",
          "name": "",
          "type": "address"
        }
      ],
      "stateMutability": "view",
      "type": "function"
    },
    {
      "inputs": [
        {
          "internalType": "address",
          "name": "yourAddress",
          "type": "address"
        }
      ],
      "name": "releaseTime",
      "outputs": [
        {
          "internalType": "uint256",
          "name": "",
          "type": "uint256"
        }
      ],
      "stateMutability": "view",
      "type": "function"
    },
    {
      "inputs": [],
      "name": "withdraw",
      "outputs": [],
      "stateMutability": "nonpayable",
      "type": "function"
    }
  ],
  "bytecode": "0x608060405234801561001057600080fd5b50600160008190555033600160006101000a81548173ffffffffffffffffffffffffffffffffffffffff021916908373ffffffffffffffffffffffffffffffffffffffff160217905550610a29806100696000396000f3fe60806040526004361061004a5760003560e01c806334265c481461004f5780633ccfd60b1461008c5780638da5cb5b146100a3578063d0e30db0146100ce578063e3d670d7146100ec575b600080fd5b34801561005b57600080fd5b50610076600480360381019061007191906106ad565b610129565b60405161008391906106f3565b60405180910390f35b34801561009857600080fd5b506100a161018e565b005b3480156100af57600080fd5b506100b8610493565b6040516100c5919061071d565b60405180910390f35b6100d66104b9565b6040516100e391906106f3565b60405180910390f35b3480156100f857600080fd5b50610113600480360381019061010e91906106ad565b6105fe565b60405161012091906106f3565b60405180910390f35b60006201518042600260008573ffffffffffffffffffffffffffffffffffffffff1673ffffffffffffffffffffffffffffffffffffffff1681526020019081526020016000206001015461017d9190610767565b61018791906107ca565b9050919050565b42600260003373ffffffffffffffffffffffffffffffffffffffff1673ffffffffffffffffffffffffffffffffffffffff1681526020019081526020016000206001015410610212576040517f08c379a000000000000000000000000000000000000000000000000000000000815260040161020990610858565b60405180910390fd5b6000600260003373ffffffffffffffffffffffffffffffffffffffff1673ffffffffffffffffffffffffffffffffffffffff1681526020019081526020016000206000015411610297576040517f08c379a000000000000000000000000000000000000000000000000000000000815260040161028e906108c4565b60405180910390fd5b6000600260003373ffffffffffffffffffffffffffffffffffffffff1673ffffffffffffffffffffffffffffffffffffffff168152602001908152602001600020600101819055506000600260003373ffffffffffffffffffffffffffffffffffffffff1673ffffffffffffffffffffffffffffffffffffffff168152602001908152602001600020600001819055507f84ac9cca1a05a11d01ccdceb7ba52c348d975a16215bb2728241a7fcc95e32c9600260003373ffffffffffffffffffffffffffffffffffffffff1673ffffffffffffffffffffffffffffffffffffffff168152602001908152602001600020600001543360405161039a9291906108e4565b60405180910390a160003373ffffffffffffffffffffffffffffffffffffffff16600260003373ffffffffffffffffffffffffffffffffffffffff1673ffffffffffffffffffffffffffffffffffffffff1681526020019081526020016000206000015460405161040a9061093e565b60006040518083038185875af1925050503d8060008114610447576040519150601f19603f3d011682016040523d82523d6000602084013e61044c565b606091505b5050905080610490576040517f08c379a00000000000000000000000000000000000000000000000000000000081526004016104879061099f565b60405180910390fd5b50565b600160009054906101000a900473ffffffffffffffffffffffffffffffffffffffff1681565b600067016345785d8a000034146104cf57600080fd5b34600260003373ffffffffffffffffffffffffffffffffffffffff1673ffffffffffffffffffffffffffffffffffffffff168152602001908152602001600020600001600082825461052191906109bf565b925050819055506283d6004261053791906109bf565b600260003373ffffffffffffffffffffffffffffffffffffffff1673ffffffffffffffffffffffffffffffffffffffff168152602001908152602001600020600101819055507fa1d0371d72520a6b045b83f0e52b625a4a84b2ad1ffe079d0e1524ca95cfaa3234336040516105ae9291906108e4565b60405180910390a1600260003373ffffffffffffffffffffffffffffffffffffffff1673ffffffffffffffffffffffffffffffffffffffff16815260200190815260200160002060000154905090565b6000600260008373ffffffffffffffffffffffffffffffffffffffff1673ffffffffffffffffffffffffffffffffffffffff168152602001908152602001600020600001549050919050565b600080fd5b600073ffffffffffffffffffffffffffffffffffffffff82169050919050565b600061067a8261064f565b9050919050565b61068a8161066f565b811461069557600080fd5b50565b6000813590506106a781610681565b92915050565b6000602082840312156106c3576106c261064a565b5b60006106d184828501610698565b91505092915050565b6000819050919050565b6106ed816106da565b82525050565b600060208201905061070860008301846106e4565b92915050565b6107178161066f565b82525050565b6000602082019050610732600083018461070e565b92915050565b7f4e487b7100000000000000000000000000000000000000000000000000000000600052601160045260246000fd5b6000610772826106da565b915061077d836106da565b925082820390508181111561079557610794610738565b5b92915050565b7f4e487b7100000000000000000000000000000000000000000000000000000000600052601260045260246000fd5b60006107d5826106da565b91506107e0836106da565b9250826107f0576107ef61079b565b5b828204905092915050565b600082825260208201905092915050565b7f546865206368616c6c656e67652069736e2774206f7665722100000000000000600082015250565b60006108426019836107fb565b915061084d8261080c565b602082019050919050565b6000602082019050818103600083015261087181610835565b9050919050565b7f596f7520646f6e277420686176652062616c616e636500000000000000000000600082015250565b60006108ae6016836107fb565b91506108b982610878565b602082019050919050565b600060208201905081810360008301526108dd816108a1565b9050919050565b60006040820190506108f960008301856106e4565b610906602083018461070e565b9392505050565b600081905092915050565b50565b600061092860008361090d565b915061093382610918565b600082019050919050565b60006109498261091b565b9150819050919050565b7f4d41544943206e6f742073656e74000000000000000000000000000000000000600082015250565b6000610989600e836107fb565b915061099482610953565b602082019050919050565b600060208201905081810360008301526109b88161097c565b9050919050565b60006109ca826106da565b91506109d5836106da565b92508282019050808211156109ed576109ec610738565b5b9291505056fea2646970667358221220ea4f705f34c407c2882dadf5f6cdb29a7e28212628df6307c3e7cddd9afcfd2164736f6c63430008110033",
  "linkReferences": {},
  "deployedLinkReferences": {}
}